{
  "contractName": "Property",
  "abi": [
    {
      "inputs": [],
      "payable": false,
      "stateMutability": "nonpayable",
      "type": "constructor"
    },
    {
      "anonymous": false,
      "inputs": [
        {
          "indexed": true,
          "internalType": "uint256",
          "name": "_value",
          "type": "uint256"
        },
        {
          "indexed": true,
          "internalType": "address",
          "name": "_currOwner",
          "type": "address"
        }
      ],
      "name": "PropertyCreated",
      "type": "event"
    },
    {
      "constant": true,
      "inputs": [
        {
          "internalType": "uint256",
          "name": "",
          "type": "uint256"
        }
      ],
      "name": "propOwnerChange",
      "outputs": [
        {
          "internalType": "address",
          "name": "",
          "type": "address"
        }
      ],
      "payable": false,
      "stateMutability": "view",
      "type": "function"
    },
    {
      "constant": true,
      "inputs": [
        {
          "internalType": "uint256",
          "name": "",
          "type": "uint256"
        }
      ],
      "name": "properties",
      "outputs": [
        {
          "internalType": "uint256",
          "name": "PropId",
          "type": "uint256"
        },
        {
          "internalType": "enum Property.Status",
          "name": "status",
          "type": "uint8"
        },
        {
          "internalType": "uint256",
          "name": "value",
          "type": "uint256"
        },
        {
          "internalType": "address",
          "name": "currOwner",
          "type": "address"
        }
      ],
      "payable": false,
      "stateMutability": "view",
      "type": "function"
    },
    {
      "constant": true,
      "inputs": [],
      "name": "propertyCount",
      "outputs": [
        {
          "internalType": "uint256",
          "name": "",
          "type": "uint256"
        }
      ],
      "payable": false,
      "stateMutability": "view",
      "type": "function"
    },
    {
      "constant": true,
      "inputs": [
        {
          "internalType": "address",
          "name": "",
          "type": "address"
        }
      ],
      "name": "users",
      "outputs": [
        {
          "internalType": "bool",
          "name": "",
          "type": "bool"
        }
      ],
      "payable": false,
      "stateMutability": "view",
      "type": "function"
    },
    {
      "constant": false,
      "inputs": [
        {
          "internalType": "uint256",
          "name": "_value",
          "type": "uint256"
        },
        {
          "internalType": "address",
          "name": "_currOwner",
          "type": "address"
        }
      ],
      "name": "createProperty",
      "outputs": [],
      "payable": false,
      "stateMutability": "nonpayable",
      "type": "function"
    },
    {
      "constant": false,
      "inputs": [
        {
          "internalType": "uint256",
          "name": "_propId",
          "type": "uint256"
        },
        {
          "internalType": "address",
          "name": "_newOwner",
          "type": "address"
        }
      ],
      "name": "changeOwnership",
      "outputs": [],
      "payable": false,
      "stateMutability": "nonpayable",
      "type": "function"
    },
    {
      "constant": true,
      "inputs": [
        {
          "internalType": "uint256",
          "name": "_currOwner",
          "type": "uint256"
        }
      ],
      "name": "getProperty",
      "outputs": [
        {
          "internalType": "uint256",
          "name": "",
          "type": "uint256"
        }
      ],
      "payable": false,
      "stateMutability": "view",
      "type": "function"
    },
    {
      "constant": true,
      "inputs": [
        {
          "internalType": "uint256",
          "name": "_propId",
          "type": "uint256"
        },
        {
          "internalType": "address",
          "name": "_currOwner",
          "type": "address"
        }
      ],
      "name": "getPropertywithId",
      "outputs": [
        {
          "internalType": "enum Property.Status",
          "name": "",
          "type": "uint8"
        },
        {
          "internalType": "uint256",
          "name": "",
          "type": "uint256"
        },
        {
          "internalType": "address",
          "name": "",
          "type": "address"
        }
      ],
      "payable": false,
      "stateMutability": "view",
      "type": "function"
    },
    {
      "constant": false,
      "inputs": [
        {
          "internalType": "uint256",
          "name": "_propId",
          "type": "uint256"
        },
        {
          "internalType": "uint256",
          "name": "_newValue",
          "type": "uint256"
        }
      ],
      "name": "editProperty",
      "outputs": [],
      "payable": false,
      "stateMutability": "nonpayable",
      "type": "function"
    }
  ],
  "bytecode": "0x608060405234801561001057600080fd5b506100376103f27303068a598062b50b8cb011d47f079b6d105d6e6f61003c60201b60201c565b6101ce565b6003600081548092919060010191905055506001600260003373ffffffffffffffffffffffffffffffffffffffff1673ffffffffffffffffffffffffffffffffffffffff16815260200190815260200160002060006101000a81548160ff02191690831515021790555060405180608001604052806003548152602001600060018111156100c657fe5b81526020018381526020018273ffffffffffffffffffffffffffffffffffffffff1681525060008060035481526020019081526020016000206000820151816000015560208201518160010160006101000a81548160ff0219169083600181111561012d57fe5b02179055506040820151816002015560608201518160030160006101000a81548173ffffffffffffffffffffffffffffffffffffffff021916908373ffffffffffffffffffffffffffffffffffffffff1602179055509050508073ffffffffffffffffffffffffffffffffffffffff16827f49c77f4caee73b5ba6eb61fee47d64cb116792e3574acd603831c4ffd5df35cf60405160405180910390a35050565b61088b806101dd6000396000f3fe608060405234801561001057600080fd5b50600436106100935760003560e01c80639c4ea46a116100665780639c4ea46a14610220578063a87430ba1461028e578063c361a335146102ea578063caf731c214610308578063f7b108081461034057610093565b806332665ffb146100985780633be78861146100da57806389b3887e146101845780639935c963146101d2575b600080fd5b6100c4600480360360208110156100ae57600080fd5b81019080803590602001909291905050506103d1565b6040518082815260200191505060405180910390f35b610126600480360360408110156100f057600080fd5b8101908080359060200190929190803573ffffffffffffffffffffffffffffffffffffffff169060200190929190505050610434565b6040518084600181111561013657fe5b60ff1681526020018381526020018273ffffffffffffffffffffffffffffffffffffffff1673ffffffffffffffffffffffffffffffffffffffff168152602001935050505060405180910390f35b6101d06004803603604081101561019a57600080fd5b8101908080359060200190929190803573ffffffffffffffffffffffffffffffffffffffff1690602001909291905050506104b5565b005b61021e600480360360408110156101e857600080fd5b8101908080359060200190929190803573ffffffffffffffffffffffffffffffffffffffff1690602001909291905050506105f5565b005b61024c6004803603602081101561023657600080fd5b8101908080359060200190929190505050610787565b604051808273ffffffffffffffffffffffffffffffffffffffff1673ffffffffffffffffffffffffffffffffffffffff16815260200191505060405180910390f35b6102d0600480360360208110156102a457600080fd5b81019080803573ffffffffffffffffffffffffffffffffffffffff1690602001909291905050506107ba565b604051808215151515815260200191505060405180910390f35b6102f26107da565b6040518082815260200191505060405180910390f35b61033e6004803603604081101561031e57600080fd5b8101908080359060200190929190803590602001909291905050506107e0565b005b61036c6004803603602081101561035657600080fd5b81019080803590602001909291905050506107f9565b6040518085815260200184600181111561038257fe5b60ff1681526020018381526020018273ffffffffffffffffffffffffffffffffffffffff1673ffffffffffffffffffffffffffffffffffffffff16815260200194505050505060405180910390f35b60008060018111156103df57fe5b60008084815260200190815260200160002060010160009054906101000a900460ff16600181111561040d57fe5b1461041757600080fd5b600080838152602001908152602001600020600201549050919050565b600080600080600086815260200190815260200160002060010160009054906101000a900460ff166000808781526020019081526020016000206002015460008088815260200190815260200160002060030160009054906101000a900473ffffffffffffffffffffffffffffffffffffffff169250925092509250925092565b8073ffffffffffffffffffffffffffffffffffffffff1660008084815260200190815260200160002060030160009054906101000a900473ffffffffffffffffffffffffffffffffffffffff1673ffffffffffffffffffffffffffffffffffffffff16141561052357600080fd5b6000600181111561053057fe5b60008084815260200190815260200160002060010160009054906101000a900460ff16600181111561055e57fe5b1461056857600080fd5b806001600084815260200190815260200160002060006101000a81548173ffffffffffffffffffffffffffffffffffffffff021916908373ffffffffffffffffffffffffffffffffffffffff160217905550600160008084815260200190815260200160002060010160006101000a81548160ff021916908360018111156105ec57fe5b02179055505050565b6003600081548092919060010191905055506001600260003373ffffffffffffffffffffffffffffffffffffffff1673ffffffffffffffffffffffffffffffffffffffff16815260200190815260200160002060006101000a81548160ff021916908315150217905550604051806080016040528060035481526020016000600181111561067f57fe5b81526020018381526020018273ffffffffffffffffffffffffffffffffffffffff1681525060008060035481526020019081526020016000206000820151816000015560208201518160010160006101000a81548160ff021916908360018111156106e657fe5b02179055506040820151816002015560608201518160030160006101000a81548173ffffffffffffffffffffffffffffffffffffffff021916908373ffffffffffffffffffffffffffffffffffffffff1602179055509050508073ffffffffffffffffffffffffffffffffffffffff16827f49c77f4caee73b5ba6eb61fee47d64cb116792e3574acd603831c4ffd5df35cf60405160405180910390a35050565b60016020528060005260406000206000915054906101000a900473ffffffffffffffffffffffffffffffffffffffff1681565b60026020528060005260406000206000915054906101000a900460ff1681565b60035481565b8060008084815260200190815260200160002050505050565b60006020528060005260406000206000915090508060000154908060010160009054906101000a900460ff16908060020154908060030160009054906101000a900473ffffffffffffffffffffffffffffffffffffffff1690508456fea265627a7a723158204ec6e72bbbe5ea3c0095a34b70ab3200c3887fb5e19b72e77bb849850f3df2f664736f6c63430005100032",
  "source": "pragma solidity ^0.5.16;\r\n\r\ncontract Property{\r\n    //Model a house: id, value, account\r\n    enum Status {Pending, Sold}\r\n    struct PropertyDetails {\r\n        uint PropId;\r\n        Status status;\r\n        uint value;\r\n        address currOwner;\r\n    }\r\n    //Store houses\r\n    //Fetch houses\r\n    mapping(uint => PropertyDetails) public properties;\r\n    mapping(uint => address) public propOwnerChange;\r\n    mapping(address => bool) public users;\r\n    //Store house count\r\n    uint public propertyCount;\r\n\r\n    event PropertyCreated(\r\n        uint indexed _value,\r\n        address indexed _currOwner\r\n    );\r\n\r\n    modifier onlyOwner(uint _propId){\r\n        require(properties[_propId].currOwner == msg.sender);\r\n        _;\r\n    }\r\n\r\n    //Constructor \r\n    constructor () public {\r\n        createProperty(1010, 0x03068a598062B50B8CB011d47f079b6D105D6E6F);\r\n    }\r\n\r\n    //A. Create Property\r\n    function createProperty(uint _value, address _currOwner) public {\r\n        propertyCount ++;\r\n        users[msg.sender] = true;\r\n        properties[propertyCount] = PropertyDetails(propertyCount, Status.Pending, _value, _currOwner);\r\n        emit PropertyCreated(_value, _currOwner);\r\n    }\r\n\r\n    //B. Change Ownership\r\n    function changeOwnership(uint _propId, address _newOwner) public {\r\n        require(properties[_propId].currOwner != _newOwner);\r\n\t\trequire(properties[_propId].status == Status.Pending);\r\n\t\tpropOwnerChange[_propId] = _newOwner;\r\n        properties[_propId].status = Status.Sold;\r\n    }\r\n\r\n    //C. GET property details of an address\r\n    function getProperty(uint _currOwner) public view returns (uint) {\r\n        require(properties[_currOwner].status == Status.Pending);\r\n        return (properties[_currOwner].value);\r\n    }\r\n    \r\n    //D.GET property details using ID and address\r\n    function getPropertywithId(uint _propId, address _currOwner) public view returns (Status, uint, address) {\r\n        return (properties[_propId].status, properties[_propId].value, properties[_propId].currOwner);\r\n    }\r\n\r\n    //E. Edit Property Details (Value)\r\n    function editProperty(uint _propId, uint _newValue) public  {\r\n        properties[_propId].value == _newValue;\r\n    }\r\n\r\n}",
  "sourcePath": "C:/Users/jiaxi/Desktop/Election/contracts/Property.sol",
  "compiler": {
    "name": "solc",
    "version": "0.5.16+commit.9c3226ce.Emscripten.clang"
  },
  "schemaVersion": "3.2.3",
  "updatedAt": "2020-08-30T03:54:37.644Z",
  "devdoc": {
    "methods": {}
  },
  "userdoc": {
    "methods": {}
  }
}